{
  "contractName": "TodoList",
  "abi": [
    {
      "inputs": [],
      "payable": false,
      "stateMutability": "nonpayable",
      "type": "constructor"
    },
    {
      "constant": true,
      "inputs": [],
      "name": "taskCount",
      "outputs": [
        {
          "internalType": "uint256",
          "name": "",
          "type": "uint256"
        }
      ],
      "payable": false,
      "stateMutability": "view",
      "type": "function"
    },
    {
      "constant": true,
      "inputs": [
        {
          "internalType": "uint256",
          "name": "",
          "type": "uint256"
        }
      ],
      "name": "tasks",
      "outputs": [
        {
          "internalType": "uint256",
          "name": "id",
          "type": "uint256"
        },
        {
          "internalType": "string",
          "name": "content",
          "type": "string"
        },
        {
          "internalType": "bool",
          "name": "completed",
          "type": "bool"
        }
      ],
      "payable": false,
      "stateMutability": "view",
      "type": "function"
    },
    {
      "constant": false,
      "inputs": [
        {
          "internalType": "string",
          "name": "_content",
          "type": "string"
        }
      ],
      "name": "createTask",
      "outputs": [],
      "payable": false,
      "stateMutability": "nonpayable",
      "type": "function"
    },
    {
      "constant": false,
      "inputs": [
        {
          "internalType": "uint256",
          "name": "_id",
          "type": "uint256"
        }
      ],
      "name": "toggleCompleted",
      "outputs": [],
      "payable": false,
      "stateMutability": "nonpayable",
      "type": "function"
    },
    {
      "constant": false,
      "inputs": [
        {
          "internalType": "uint256",
          "name": "_id",
          "type": "uint256"
        }
      ],
      "name": "deleteTask",
      "outputs": [],
      "payable": false,
      "stateMutability": "nonpayable",
      "type": "function"
    }
  ],
  "bytecode": "0x60806040526000805534801561001457600080fd5b506100596040518060400160405280600781526020017f546f646f2023310000000000000000000000000000000000000000000000000081525061005e60201b60201c565b610195565b6000808154809291906001019190505550604051806060016040528060005481526020018281526020016000151581525060016000805481526020019081526020016000206000820151816000015560208201518160010190805190602001906100c99291906100f0565b5060408201518160020160006101000a81548160ff02191690831515021790555090505050565b828054600181600116156101000203166002900490600052602060002090601f016020900481019282601f1061013157805160ff191683800117855561015f565b8280016001018555821561015f579182015b8281111561015e578251825591602001919060010190610143565b5b50905061016c9190610170565b5090565b61019291905b8082111561018e576000816000905550600101610176565b5090565b90565b6106a1806101a46000396000f3fe608060405234801561001057600080fd5b50600436106100575760003560e01c8063111002aa1461005c578063455f502414610117578063560f3192146101455780638d97767214610173578063b6cb58a51461022c575b600080fd5b6101156004803603602081101561007257600080fd5b810190808035906020019064010000000081111561008f57600080fd5b8201836020820111156100a157600080fd5b803590602001918460018302840111640100000000831117156100c357600080fd5b91908080601f016020809104026020016040519081016040528093929190818152602001838380828437600081840152601f19601f82011690508083019250505050505050919291929050505061024a565b005b6101436004803603602081101561012d57600080fd5b81019080803590602001909291905050506102dc565b005b6101716004803603602081101561015b57600080fd5b8101908080359060200190929190505050610442565b005b61019f6004803603602081101561018957600080fd5b8101908080359060200190929190505050610487565b604051808481526020018060200183151515158152602001828103825284818151815260200191508051906020019080838360005b838110156101ef5780820151818401526020810190506101d4565b50505050905090810190601f16801561021c5780820380516001836020036101000a031916815260200191505b5094505050505060405180910390f35b610234610556565b6040518082815260200191505060405180910390f35b6000808154809291906001019190505550604051806060016040528060005481526020018281526020016000151581525060016000805481526020019081526020016000206000820151816000015560208201518160010190805190602001906102b592919061055c565b5060408201518160020160006101000a81548160ff02191690831515021790555090505050565b6102e46105dc565b6001600083815260200190815260200160002060405180606001604052908160008201548152602001600182018054600181600116156101000203166002900480601f0160208091040260200160405190810160405280929190818152602001828054600181600116156101000203166002900480156103a55780601f1061037a576101008083540402835291602001916103a5565b820191906000526020600020905b81548152906001019060200180831161038857829003601f168201915b505050505081526020016002820160009054906101000a900460ff1615151515815250509050806040015115816040019015159081151581525050806001600084815260200190815260200160002060008201518160000155602082015181600101908051906020019061041a92919061055c565b5060408201518160020160006101000a81548160ff0219169083151502179055509050505050565b6001600082815260200190815260200160002060008082016000905560018201600061046e91906105ff565b6002820160006101000a81549060ff0219169055505050565b6001602052806000526040600020600091509050806000015490806001018054600181600116156101000203166002900480601f0160208091040260200160405190810160405280929190818152602001828054600181600116156101000203166002900480156105395780601f1061050e57610100808354040283529160200191610539565b820191906000526020600020905b81548152906001019060200180831161051c57829003601f168201915b5050505050908060020160009054906101000a900460ff16905083565b60005481565b828054600181600116156101000203166002900490600052602060002090601f016020900481019282601f1061059d57805160ff19168380011785556105cb565b828001600101855582156105cb579182015b828111156105ca5782518255916020019190600101906105af565b5b5090506105d89190610647565b5090565b604051806060016040528060008152602001606081526020016000151581525090565b50805460018160011615610100020316600290046000825580601f106106255750610644565b601f0160209004906000526020600020908101906106439190610647565b5b50565b61066991905b8082111561066557600081600090555060010161064d565b5090565b9056fea265627a7a723158208fd4fa371807917c91c5e781692728daece18d4d625d88628e3031acf366301564736f6c63430005100032",
  "source": "pragma solidity ^0.5.0;\r\n\r\n\r\ncontract TodoList {\r\n    uint public taskCount = 0;\r\n\r\n    struct Task {\r\n        uint id;\r\n        string content;\r\n        bool completed;\r\n    }\r\n\r\n    mapping(uint => Task) public tasks;\r\n\r\n    constructor() public {\r\n        createTask(\"Todo #1\");\r\n    }\r\n\r\n    function createTask(string memory _content) public {\r\n        taskCount ++;\r\n        tasks[taskCount] = Task(taskCount, _content, false);\r\n    }\r\n\r\n    function toggleCompleted(uint _id) public {\r\n        Task memory _task = tasks[_id];\r\n        _task.completed = !_task.completed;\r\n        tasks[_id] = _task;\r\n    }\r\n\r\n    function deleteTask(uint _id) public {\r\n        delete tasks[_id];\r\n    }\r\n\r\n}",
  "sourcePath": "C:\\Users\\DOMEN\\WebstormProjects\\todo_list\\src\\blockchain\\contracts\\TodoList.sol",
  "compiler": {
    "name": "solc",
    "version": "0.5.16+commit.9c3226ce.Emscripten.clang"
  },
  "schemaVersion": "3.4.3",
  "updatedAt": "2021-08-16T08:16:34.863Z",
  "networkType": "ethereum",
  "devdoc": {
    "methods": {}
  },
  "userdoc": {
    "methods": {}
  }
}