{
  "contractName": "TodoList",
  "abi": [
    {
      "constant": true,
      "inputs": [
        {
          "internalType": "uint256",
          "name": "",
          "type": "uint256"
        }
      ],
      "name": "taskToOwner",
      "outputs": [
        {
          "internalType": "address",
          "name": "",
          "type": "address"
        }
      ],
      "payable": false,
      "stateMutability": "view",
      "type": "function"
    },
    {
      "constant": true,
      "inputs": [
        {
          "internalType": "uint256",
          "name": "",
          "type": "uint256"
        }
      ],
      "name": "tasks",
      "outputs": [
        {
          "internalType": "string",
          "name": "content",
          "type": "string"
        },
        {
          "internalType": "bool",
          "name": "completed",
          "type": "bool"
        }
      ],
      "payable": false,
      "stateMutability": "view",
      "type": "function"
    },
    {
      "constant": false,
      "inputs": [
        {
          "internalType": "string",
          "name": "_content",
          "type": "string"
        }
      ],
      "name": "createTask",
      "outputs": [],
      "payable": false,
      "stateMutability": "nonpayable",
      "type": "function"
    },
    {
      "constant": false,
      "inputs": [
        {
          "internalType": "uint256",
          "name": "_id",
          "type": "uint256"
        }
      ],
      "name": "toggleCompleted",
      "outputs": [],
      "payable": false,
      "stateMutability": "nonpayable",
      "type": "function"
    },
    {
      "constant": false,
      "inputs": [
        {
          "internalType": "uint256",
          "name": "_id",
          "type": "uint256"
        }
      ],
      "name": "deleteTask",
      "outputs": [],
      "payable": false,
      "stateMutability": "nonpayable",
      "type": "function"
    },
    {
      "constant": true,
      "inputs": [
        {
          "internalType": "address",
          "name": "_address",
          "type": "address"
        }
      ],
      "name": "getTasksByOwner",
      "outputs": [
        {
          "internalType": "uint256[]",
          "name": "",
          "type": "uint256[]"
        }
      ],
      "payable": false,
      "stateMutability": "view",
      "type": "function"
    }
  ],
  "bytecode": "0x608060405234801561001057600080fd5b50610a5c806100206000396000f3fe608060405234801561001057600080fd5b50600436106100625760003560e01c8063111002aa14610067578063455f502414610122578063560f3192146101505780636641c6c41461017e5780638d977672146101ec578063f0f39ce41461029e575b600080fd5b6101206004803603602081101561007d57600080fd5b810190808035906020019064010000000081111561009a57600080fd5b8201836020820111156100ac57600080fd5b803590602001918460018302840111640100000000831117156100ce57600080fd5b91908080601f016020809104026020016040519081016040528093929190818152602001838380828437600081840152601f19601f820116905080830192505050505050509192919290505050610337565b005b61014e6004803603602081101561013857600080fd5b8101908080359060200190929190505050610467565b005b61017c6004803603602081101561016657600080fd5b8101908080359060200190929190505050610636565b005b6101aa6004803603602081101561019457600080fd5b81019080803590602001909291905050506106e8565b604051808273ffffffffffffffffffffffffffffffffffffffff1673ffffffffffffffffffffffffffffffffffffffff16815260200191505060405180910390f35b6102186004803603602081101561020257600080fd5b810190808035906020019092919050505061071b565b604051808060200183151515158152602001828103825284818151815260200191508051906020019080838360005b83811015610262578082015181840152602081019050610247565b50505050905090810190601f16801561028f5780820380516001836020036101000a031916815260200191505b50935050505060405180910390f35b6102e0600480360360208110156102b457600080fd5b81019080803573ffffffffffffffffffffffffffffffffffffffff1690602001909291905050506107f1565b6040518080602001828103825283818151815260200191508051906020019060200280838360005b83811015610323578082015181840152602081019050610308565b505050509050019250505060405180910390f35b60006001600060405180604001604052808581526020016000151581525090806001815401808255809150509060018203906000526020600020906002020160009091929091909150600082015181600001908051906020019061039c92919061091e565b5060208201518160010160006101000a81548160ff0219169083151502179055505050039050600260003373ffffffffffffffffffffffffffffffffffffffff1673ffffffffffffffffffffffffffffffffffffffff16815260200190815260200160002060008154809291906001019190505550336001600083815260200190815260200160002060006101000a81548173ffffffffffffffffffffffffffffffffffffffff021916908373ffffffffffffffffffffffffffffffffffffffff1602179055505050565b803373ffffffffffffffffffffffffffffffffffffffff166001600083815260200190815260200160002060009054906101000a900473ffffffffffffffffffffffffffffffffffffffff1673ffffffffffffffffffffffffffffffffffffffff16146104d357600080fd5b6104db61099e565b600083815481106104e857fe5b9060005260206000209060020201604051806040016040529081600082018054600181600116156101000203166002900480601f01602080910402602001604051908101604052809291908181526020018280546001816001161561010002031660029004801561059a5780601f1061056f5761010080835404028352916020019161059a565b820191906000526020600020905b81548152906001019060200180831161057d57829003601f168201915b505050505081526020016001820160009054906101000a900460ff161515151581525050905080602001511581602001901515908115158152505080600084815481106105e357fe5b9060005260206000209060020201600082015181600001908051906020019061060d92919061091e565b5060208201518160010160006101000a81548160ff021916908315150217905550905050505050565b803373ffffffffffffffffffffffffffffffffffffffff166001600083815260200190815260200160002060009054906101000a900473ffffffffffffffffffffffffffffffffffffffff1673ffffffffffffffffffffffffffffffffffffffff16146106a257600080fd5b600082815481106106af57fe5b9060005260206000209060020201600080820160006106ce91906109ba565b6001820160006101000a81549060ff021916905550505050565b60016020528060005260406000206000915054906101000a900473ffffffffffffffffffffffffffffffffffffffff1681565b6000818154811061072857fe5b9060005260206000209060020201600091509050806000018054600181600116156101000203166002900480601f0160208091040260200160405190810160405280929190818152602001828054600181600116156101000203166002900480156107d45780601f106107a9576101008083540402835291602001916107d4565b820191906000526020600020905b8154815290600101906020018083116107b757829003601f168201915b5050505050908060010160009054906101000a900460ff16905082565b606080600260008473ffffffffffffffffffffffffffffffffffffffff1673ffffffffffffffffffffffffffffffffffffffff168152602001908152602001600020546040519080825280602002602001820160405280156108625781602001602082028038833980820191505090505b509050600080905060008090505b600080549050811015610913578473ffffffffffffffffffffffffffffffffffffffff166001600083815260200190815260200160002060009054906101000a900473ffffffffffffffffffffffffffffffffffffffff1673ffffffffffffffffffffffffffffffffffffffff16141561090657808383815181106108f157fe5b60200260200101818152505081806001019250505b8080600101915050610870565b508192505050919050565b828054600181600116156101000203166002900490600052602060002090601f016020900481019282601f1061095f57805160ff191683800117855561098d565b8280016001018555821561098d579182015b8281111561098c578251825591602001919060010190610971565b5b50905061099a9190610a02565b5090565b6040518060400160405280606081526020016000151581525090565b50805460018160011615610100020316600290046000825580601f106109e057506109ff565b601f0160209004906000526020600020908101906109fe9190610a02565b5b50565b610a2491905b80821115610a20576000816000905550600101610a08565b5090565b9056fea265627a7a72315820eef8e73f7cbb6da5dfa2dfbcda9d51fefbac0ecb95e05fdb1be377af779fdef764736f6c63430005100032",
  "source": "pragma solidity ^0.5.0;\r\n\r\n\r\ncontract TodoList {\r\n\r\n    struct Task {\r\n        string content;\r\n        bool completed;\r\n    }\r\n\r\n    modifier onlyOwner (uint _id) {\r\n        require(taskToOwner[_id] == msg.sender);\r\n        _;\r\n    }\r\n\r\n    Task[] public tasks;\r\n\r\n    mapping(uint => address) public taskToOwner;\r\n    mapping(address => uint)  ownerTaskCount;\r\n\r\n\r\n    function createTask(string memory _content) public {\r\n        uint id = tasks.push(Task(_content,false))-1;\r\n        ownerTaskCount[msg.sender]++;\r\n        taskToOwner[id] = msg.sender;\r\n    }\r\n\r\n    function toggleCompleted(uint _id) public onlyOwner(_id) {\r\n        Task memory _task = tasks[_id];\r\n        _task.completed = !_task.completed;\r\n        tasks[_id] = _task;\r\n    }\r\n\r\n    function deleteTask(uint _id) public onlyOwner(_id) {\r\n        delete tasks[_id];\r\n    }\r\n\r\n    function getTasksByOwner (address _address) public view returns (uint[] memory) {\r\n        uint[] memory result = new uint[](ownerTaskCount[_address]);\r\n        uint counter = 0;\r\n        for (uint i = 0; i < tasks.length; i++) {\r\n            if(taskToOwner[i] == _address) {\r\n               result[counter] = i;\r\n                counter++;\r\n            }\r\n        }\r\n        return result;\r\n    }\r\n\r\n}",
  "sourcePath": "C:\\Users\\DOMEN\\WebstormProjects\\todo_list\\src\\blockchain\\contracts\\TodoList.sol",
  "compiler": {
    "name": "solc",
    "version": "0.5.16+commit.9c3226ce.Emscripten.clang"
  },
  "schemaVersion": "3.4.3",
  "updatedAt": "2021-08-22T19:22:57.350Z",
  "networkType": "ethereum",
  "devdoc": {
    "methods": {}
  },
  "userdoc": {
    "methods": {}
  }
}